:100000000C946C030C9494030C9494030C9494033C
:100010000C9494030C9494030C9494030C94940304
:100020000C9494030C9494030C94E9060C945807D4
:100030000C9494030C9494030C9494030C949403E4
:100040000C9494030C9494030C9494030C949403D4
:100050000C9494030C9494030C9494030C948A09C8
:100060000C9494030C9494030C9494030C949403B4
:100070000C9494030C9494030C9494030C949403A4
:100080000C9494030C9494030C9494030C94940394
:100090000C9494030C9494030C9494030C94940384
:1000A0000C9494030C9494030C94940300000000AB
:1000B000003E5B4F5B3E3E6B4F6B3E1C3E7C3E1CEE
:1000C000183C7E3C181C577D571C1C5E7F5E1C0034
:1000D000183C1800FFE7C3E7FF0018241800FFE7EB
:1000E000DBE7FF30483A060E2629792926407F05AE
:1000F0000507407F05253F5A3CE73C5A7F3E1C1CC4
:1001000008081C1C3E7F14227F22145F5F005F5F83
:1001100006097F017F006689956A6060606060946F
:10012000A2FFA29408047E040810207E2010080874
:100130002A1C08081C2A08081E101010100C1E0C7F
:100140001E0C30383E3830060E3E0E060000000011
:100150000000005F00000007000700147F147F14F8
:10016000242A7F2A1223130864623649562050003D
:1001700008070300001C2241000041221C002A1C29
:100180007F1C2A08083E0808008070300008080814
:100190000808000060600020100804023E51494534
:1001A0003E00427F400072494949462141494D3352
:1001B0001814127F1027454545393C4A49493141B9
:1001C000211109073649494936464949291E000087
:1001D00014000000403400000008142241141414DC
:1001E0001414004122140802015909063E415D59C8
:1001F0004E7C1211127C7F494949363E41414122D1
:100200007F4141413E7F494949417F090909013EFA
:10021000414151737F0808087F00417F4100204021
:10022000413F017F081422417F404040407F021C33
:10023000027F7F0408107F3E4141413E7F0909094A
:10024000063E4151215E7F09192946264949493216
:1002500003017F01033F4040403F1F2040201F3FDC
:100260004038403F63140814630304780403615961
:10027000494D43007F4141410204081020004141A3
:10028000417F04020102044040404040000307084F
:100290000020545478407F2844443838444444284B
:1002A000384444287F385454541800087E090218F2
:1002B000A4A49C787F0804047800447D400020407A
:1002C000403D007F1028440000417F40007C0478BE
:1002D00004787C080404783844444438FC18242406
:1002E0001818242418FC7C08040408485454542486
:1002F00004043F44243C4040207C1C2040201C3C03
:100300004030403C44281028444C9090907C4464F9
:10031000544C44000836410000007700000041368C
:10032000080002010204023C2623263C1EA1A16112
:10033000123A4040207A3854545559215555794144
:100340002154547841215554784020545579400C1B
:100350001E527212395555555939545454593955FC
:100360005454580000457C410002457D420001453F
:100370007C40F0292429F0F0282528F07C545545AC
:10038000002054547C547C0A097F4932494949323F
:100390003248484832324A4848303A4141217A3A54
:1003A00042402078009DA0A07D39444444393D401E
:1003B00040403D3C24FF2424487E4943662B2FFCCB
:1003C0002F2BFF0929F620C0887E09032054547979
:1003D000410000447D413048484A32384040227A4A
:1003E000007A0A0A727D0D19317D2629292F2826C7
:1003F0002929292630484D402038080808080808CF
:100400000808382F10C8ACBA2F102834FA00007B27
:10041000000008142A142222142A1408950022002D
:1004200095AA005500AAAA55AA55AA000000FF00E7
:10043000101010FF00141414FF001010FF00FF1024
:1004400010F010F0141414FC001414F700FF000056
:10045000FF00FF1414F404FC141417101F10101FD5
:10046000101F1414141F00101010F0000000001FC3
:10047000101010101F10101010F010000000FF10CE
:100480001010101010101010FF10000000FF1400CA
:1004900000FF00FF00001F10170000FC04F41414FC
:1004A0001710171414F404F40000FF00F7141414C8
:1004B00014141414F700F7141414171410101F1048
:1004C0001F141414F4141010F010F000001F101F6B
:1004D0000000001F14000000FC140000F010F010D9
:1004E00010FF10FF141414FF141010101F00000050
:1004F00000F010FFFFFFFFFFF0F0F0F0F0FFFFFF54
:100500000000000000FFFF0F0F0F0F0F38444438AA
:10051000447C2A2A3E147E02020606027E027E02E5
:1005200063554941633844443C04407E201E200604
:10053000027E020299A5E7A5991C2A492A1C4C7241
:1005400001724C304A4D4D303048784830BC625AC8
:10055000463D3E494949007E0101017E2A2A2A2A58
:100560002A44445F444440514A444040444A514034
:100570000000FF0103E080FF000008086B6B0836F5
:1005800012362436060F090F060000181800000066
:100590001010003040FF0101001F01011E00191D55
:1005A0001712003C3C3C3C0000000000F0F89C8E20
:1005B0008783878E9CF8F00000FEFF03030303038C
:1005C000070EFCF80000FEFF0303030303070EFC05
:1005D000F80000FFFF00000000000000FFFF000027
:1005E000FEFF8383838383C7EE7C380000F8FC0E14
:1005F00007030303070EFCF800003F7FE0C0808084
:10060000C0E07F3FFFFF01010101010101FFFF0089
:1006100000FFFF0C0C0C0C1C3E77E3C100007FFFB9
:10062000C0C0C0C0C0E0703F1F00001F3F70E0C0EE
:10063000C0C0E0703F1F00007FFFC1C1C1C1C1E366
:10064000773E1C00001F3F70E0C0C0C0E0703F1F3D
:10065000000000000001FFFF01000000D5F08D1434
:10066000A1C881CFD9F1AF2000080B00020202001F
:100670000009040000010202000005240010010529
:100680002401010104240206052406000107058156
:100690000310004009040100020A000000070502DF
:1006A0000240000007058302400000040309041211
:1006B000010002EF020140412336800001010203E4
:1006C0000141726475696E6F204C4C430041726445
:1006D00075626F790000070A11241FBECFEFDAE0C0
:1006E000DEBFCDBF11E0A0E0B1E0E8E0F7E202C07C
:1006F00005900D92A234B107D9F725E0A2E4B1E04C
:1007000001C01D92A53CB207E1F713E0CCE6D3E0AF
:1007100004C02197FE010E947C13CB36D107C9F794
:100720000E94240A0C9482130C94000080E0E1E7FC
:10073000F1E081118FEF0024819381938193819364
:100740000394D1F70895E1E7F1E0A0E0B8E000807C
:100750000EBC8111012C1197A0FDFDCF0192B9F7BC
:100760000DB40895FC0180917001882311F13FB709
:10077000F89482E08093E9002091F200822F90E0CB
:100780001816190614F481E090E0882339F02898AF
:1007900044E640936F014091F1004083222339F0F9
:1007A0002091F200211103C02BE62093E8003FBF07
:1007B00008958FEF9FEF08952FB7F89483E080930B
:1007C000E9009091E800892F807295FF04C0909114
:1007D000F20080E4891B2FBF089580916701811189
:1007E0000DC082E08093630184E0809364011092E5
:1007F00066011092650181E08093670183E691E0D4
:100800000895CF93DF931F92CDB7DEB76983DC01E4
:10081000ED91FC910280F381E02D41E050E0BE01BA
:100820006F5F7F4F09950F90DF91CF91089583E01F
:100830008093E9008091F200882319F08AE3809385
:10084000E80008950E94DC0390E00895CF93DF93C1
:100850001F92CDB7DEB7FC018485958597FD08C052
:100860002FEF3FEF358724870F90DF91CF910895C9
:10087000CE0101960E94B203019719F4898190E09C
:10088000F3CF8FEF9FEFF0CF0F931F93CF93DF93B3
:100890001F92CDB7DEB78C01FC018485958597FF4B
:1008A0000BC0CE0101960E94B203019771F48981B9
:1008B00090E0F80195878487F801848595850F90ED
:1008C000DF91CF911F910F9108958FEF9FEFF1CF9F
:1008D000FC018485958597FD0BC09FB7F89482E055
:1008E0008093E9008091F2009FBF90E00196089507
:1008F0009FB7F89482E08093E9008091F2009FBF57
:1009000090E0089540915D0150915E0120915B015E
:1009100030915C0142175307B4F49091E800957050
:10092000E1F39091E80092FD19C08093F10080916D
:100930005D0190915E0101968F739927892B19F4BF
:100940008EEF8093E80080915D0190915E010196A9
:1009500090935E0180935D0181E0089580E00895A9
:10096000DF92EF92FF920F931F93CF93DF93D82ED6
:100970008A01EB017B01E40EF51ECE15DF0559F06F
:10098000D7FE12C0FE0184910E948204219681113B
:10099000F4CF0FEF1FEFC801DF91CF911F910F919F
:1009A000FF90EF90DF9008958881EECF0F931F9313
:1009B000CF93DF931F92CDB7DEB782E0898342E405
:1009C00050E069E676E080E80E94B0040E94ED0302
:1009D000DC0112960D911C910115110589F0D801C9
:1009E000ED91FC910280F381E02DBE016F5F7F4F9E
:1009F000C801099597FD04C0F80100851185ECCF69
:100A000089810F90DF91CF911F910F9108956150CF
:100A100030F02091F100FC0120830196F8CF289856
:100A200084E680936F010895AF92BF92CF92DF92D8
:100A3000EF92FF920F931F93CF93DF936C017B0193
:100A40008B01040F151FEB015E01AE18BF08C01724
:100A5000D10759F06991D601ED91FC910190F08197
:100A6000E02DC6010995892B79F7C501DF91CF915A
:100A70001F910F91FF90EF90DF90CF90BF90AF90BC
:100A800008953FB7F8948091430190914401A0915B
:100A90004501B091460126B5A89B05C02F3F19F02E
:100AA0000196A11DB11D3FBFBA2FA92F982F8827EE
:100AB000BC01CD01620F711D811D911D42E0660FC9
:100AC000771F881F991F4A95D1F708958F929F929B
:100AD000AF92BF92CF92DF92EF92FF926B017C01B7
:100AE0000E9441054B015C01C114D104E104F104F1
:100AF000B9F00E944105681979098A099B09683E85
:100B000073408105910580F321E0C21AD108E10804
:100B1000F10888EE880E83E0981EA11CB11CE4CF7A
:100B2000FF90EF90DF90CF90BF90AF909F908F900D
:100B300008958F929F92AF92BF92CF92DF92EF92E1
:100B4000FF920F931F93CF93DF936C017B018A0178
:100B500080911B01882309F45CC080917001882377
:100B600009F457C08091620180FF05C08091E000C8
:100B700082608093E000E801B12C8AEFA82E93E018
:100B8000892E2AE3922E209711F4BB20D9F10E94DE
:100B9000DC0381110AC0AA94AA20D9F161E070E0B7
:100BA00080E090E00E946605EECF8C171D0611F0E4
:100BB0000CF08C2F9FB7F8948092E9002091E80008
:100BC00025FD02C09FBFDFCF282F30E0C21BD30B13
:100BD000F701815020F041914093F100FACFE20EED
:100BE000F31EBB2021F09092E800B12CEBCF809156
:100BF000E80085FDE7CF9092E800BB24B3942097EE
:100C000009F3F3CF5D9884E6809361011016110615
:100C10003CF081E090E0F6019383828310E000E0F5
:100C2000C801DF91CF911F910F91FF90EF90DF905E
:100C3000CF90BF90AF909F908F9008952D9A089578
:100C4000BC0190E080E00C9466058FB18095807FB8
:100C5000669B88601C9B84600895CF93C82F0E9478
:100C60002506982F9C2381E09C1380E0CF91089566
:100C700080E00C94A30380389105B8F460347105CA
:100C8000A0F420E191E061FD94E060FD990F62FD28
:100C90009295687F269FD0011124A80FAF58BE4FB0
:100CA0008C9140FF03C0892B8C93089590958923E4
:100CB000FBCF8F929F92AF92BF92CF92DF92EF9233
:100CC000FF920F931F93CF93DF936D3089F0C09005
:100CD0005101D09052016A30D1F41092500110921B
:100CE0004F0188E0C80ED11CD0925201C092510130
:100CF00081E090E0DF91CF911F910F91FF90EF90F5
:100D0000DF90CF90BF90AF909F908F90089500910B
:100D10004F0110915001E5E06E9FE0011124C45590
:100D2000DF4F4801F12CF5E0E12CFF1629F0CE0150
:100D30000196FE01E490EC01B12CA12C4E2D4170E6
:100D4000B6016A0D7B1DC4010E943B06E694FFEFCD
:100D5000AF1ABF0A88E0A816B10481F7F394EFEF49
:100D60008E1A9E0AF6E0FF12DECF0A5F1F4F109325
:100D7000500100934F01BCCF8436910510F56436C5
:100D80007105F8F44FE357E6649F9001659F300DBD
:100D9000749F300D11244DEA242740E9342763E184
:100DA00079E5869FA001879F500D969F500D1124D5
:100DB000242735272370332781E0232B19F080E087
:100DC000089581E00895089590E080E008950C94DE
:100DD00028111F920F920FB60F9211248F939F9399
:100DE0008091E1009091E100937F9093E10083FF77
:100DF0000FC01092E90091E09093EB001092EC008C
:100E000092E39093ED001092700198E09093F000BF
:100E100082FF22C093E09093E9009091F200992321
:100E200019F09AE39093E80090916101992341F0C1
:100E300090916101915090936101911101C05D9A6F
:100E400090916F01992341F090916F01915090938F
:100E50006F01911101C0289A84FF18C08091E200AF
:100E60008E7E81608093E2008091E1008F7E80938E
:100E7000E100809162018E7E8061809362019F918A
:100E80008F910F900FBE0F901F90189580FFF7CF96
:100E90008091E2008E7E80618093E2008091E1008B
:100EA0008E7E8093E100809162018E7E8160E5CF2D
:100EB0001F920F920FB60F921124CF92DF92EF92F2
:100EC000FF920F931F932F933F934F935F936F93D3
:100ED0007F938F939F93AF93BF93EF93FF93CF93A2
:100EE000DF93CDB7DEB76C97DEBFCDBF1092E900C0
:100EF0008091E80083FF25C068E0CE0145960E94FE
:100F0000070582EF8093E8008D8987FF39C09091B3
:100F1000E80090FFFCCF982F907609F034C19E89AD
:100F20004F89588D2F89F88C911131C0803861F527
:100F3000809160018093F1001092F1008EEF809318
:100F4000E8006C960FB6F894DEBF0FBECDBFDF9100
:100F5000CF91FF91EF91BF91AF919F918F917F9131
:100F60006F915F914F913F912F911F910F91FF9042
:100F7000EF90DF90CF900F900FBE0F901F901895BD
:100F80009EEF9093E800C7CF1092F100D5CF91303B
:100F900059F48111D3CF4130510581F68091600120
:100FA0008D7F80936001CACF933049F48111C6CF01
:100FB0004130510519F6809160018260F2CF953081
:100FC00041F48091E80080FFFCCF20682093E3008B
:100FD000B5CF963009F0A9C00B8D1C8D22E0109280
:100FE000E90010925E0110925D01F2122EC0109283
:100FF0005C0110925B010E94D6041F8299E09983E4
:10100000FA8291E09E8390EA98879AEF99872091DF
:101010005D0130915E01275F3F4F3C832B838D83C1
:101020001092E90010925E0110925D0110935C0134
:1010300000935B0149E050E0BE016F5F7F4F80E0AD
:101040000E94B0040E94D60479CF10935C010093F3
:101050005B010E94ED03DC0112960D911C910115BC
:10106000110509F451C1D801ED91FC910480F5817D
:10107000E02DBE016B5E7F4FC8010995009709F016
:101080003EC1F80100851185EACFF3E0FF120EC0E2
:101090008F89882309F440C0823061F440E867E01A
:1010A0008DEC96E00E94D409811148CF81E28093B3
:1010B000EB0047CF813029F440E86BE081EC96E00B
:1010C000F1CF833099F70E94ED03DC011296ED9089
:1010D000FC908E010F5F1F4F6801E114F10479F05D
:1010E000D701ED91FC910680F781E02DB801C70191
:1010F0000995080F111DF701E084F184EECFD801A6
:101100001C92F60101900020E9F73197BF016C199C
:101110007D0940E0C601C6CF6BEA76E0FB01449151
:1011200050E080E80E94B00409CF973009F4BECFA8
:10113000983021F481E08093F10000CF993009F0DC
:10114000FDCE837009F0B2CFEDE1F1E081E031E056
:1011500096E32191222371F08093E9003093EB0014
:10116000DF0111972C912093EC009093ED008F5F9D
:10117000873079F78EE78093EA001092EA008F8932
:1011800080937001DBCE8B8D9C8D1092E9001092C4
:101190005E0110925D0190935C0180935B01898DEB
:1011A000811192C08E899D89913A49F4813209F06A
:1011B0007DCF47E050E064E171E080E0B3CF913251
:1011C00009F074CF833269F48F89988DB0E0A0E084
:1011D0008093100190931101A0931201B093130119
:1011E000ADCE803269F48091E80082FFFCCF67E0E9
:1011F00084E191E00E9407058BEF8093E8009ECE8A
:10120000823209F09BCE8F8980931B01EEEFFFE7BE
:10121000859194918B3F9C4D51F1E0E0F8E08091F5
:10122000140190911501A0911601B0911701803B16
:101230009440A105B105F1F480911B0180FD1AC015
:10124000EE3F8AE0F80789F587E797E79183808387
:101250008091600080935F0188E19BE00FB6F89475
:10126000A895809360000FBE9093600067CEEEEF6C
:10127000FAE0D5CF808191818737974709F05ECE1C
:10128000A8958091600088618093600080915F01E3
:1012900080936000EE3F2AE0F20789F08091FE0A19
:1012A0009091FF0A9183808349CE80819181873715
:1012B000980751F29093FF0A8093FE0AC5CF1092CF
:1012C000FF0A1092FE0A3ACE0E94ED03DC0112964C
:1012D0000D911C910115110509F4E8CED801ED918D
:1012E000FC910190F081E02DBE016B5E7F4FC80143
:1012F0000995811123CEF80100851185EBCF1816D1
:1013000019060CF41BCED2CEF1E0FF12BECE6FEA6E
:1013100076E004CF1F920F920FB60F9211242F93F5
:101320003F938F939F93AF93BF9380914701909189
:101330004801A0914901B0914A013091420123E056
:10134000230F2D3758F50196A11DB11D20934201A1
:101350008093470190934801A0934901B0934A01BB
:101360008091430190914401A0914501B0914601C3
:101370000196A11DB11D8093430190934401A09358
:101380004501B0934601BF91AF919F918F913F91DD
:101390002F910F900FBE0F901F90189526E8230FE6
:1013A0000296A11DB11DD2CFEF92FF920F931F9312
:1013B000CF93DF93F82E192FE62E042F81E0860FAE
:1013C000880F0E94820483E00E948204CF2DD12FD7
:1013D000EC0EFD2EF11CCE15DF05B9F007FF13C092
:1013E000FE0184910E948204182F80E00E948204F2
:1013F000812321968111EFCFDF91CF911F910F9122
:10140000FF90EF9008958881EDCF81E0F5CFE1E77F
:10141000F5E01382128288EE93E0A0E0B0E08483CE
:101420009583A683B78387E291E0918380838FEFD2
:101430009FEF95878487E1ECF5E01382128289E3C0
:1014400091E0918380830895CF93DF93CDB7DEB78A
:101450006C970FB6F894DEBF0FBECDBF789484B5FD
:10146000826084BD84B5816084BD85B5826085BDA0
:1014700085B5816085BD80916E00816080936E002E
:101480001092810080918100826080938100809120
:1014900081008160809381008091800081608093D1
:1014A00080008091910082608093910080919100F2
:1014B0008160809391008091900081608093900082
:1014C0008091C10084608093C1008091C1008260DE
:1014D0008093C1008091C10081608093C1008091A0
:1014E000C30081608093C3008091C00082608093BC
:1014F000C0008091C20081608093C20080917A0018
:10150000846080937A0080917A00826080937A0070
:1015100080917A00816080937A0080917A0080685F
:1015200080937A0010927001109260011092620113
:101530008091D70081608093D70080EA8093D800A3
:1015400089B5806189BD89B5826089BD09B400FE15
:10155000FDCF61E070E080E090E00E946605809140
:10156000D8008F7C80618093D8008091E000807FDC
:101570008093E0008091E1008E7E8093E1008DE019
:101580008093E200559A209A81EC80937C0085B18B
:10159000806F85B984B1877E84B984B1876E84B940
:1015A0005E9A5F988AB1806D8AB9769A6E9881B397
:1015B000806F81BB899880B38D7080BB80E58CBDC6
:1015C00081E08DBD85E090E00E9420065F9A85E075
:1015D00090E00E9420065E985C98ECE5F6E084912D
:1015E0008EBD00000DB407FEFDCF319626E0E93632
:1015F000F207A9F75C9A81E8809364008091650006
:101600008160809365000E94380680E80E942D0664
:101610008823A9F05C9885EA8EBD00000DB407FE12
:10162000FDCF5C9A2E982F982D988091640080624F
:101630008093640081E083BF889513BEFCCF84E073
:101640000E942D06882309F448C02D9884E80E9442
:101650002D068823E1F00E941E0688EC90E00E948F
:1016600020062F9882E090E00E9428118F3F29F0F9
:101670006FEF82E090E00E94301184EF91E00E94D1
:1016800020062F9A84E80E942D068111FBCF84E169
:101690000E942D068823E1F00E941E0688EC90E04F
:1016A0000E9420062E9882E090E00E942811882354
:1016B00029F060E082E090E00E94301184EF91E038
:1016C0000E9420062E9A84E10E942D068111FBCFF4
:1016D00088EC90E00E942006B2CF0E941E0682E0B5
:1016E00090E00E94E706882309F447C03E9A3F9A9B
:1016F00081E090E00E94E706382F3470932E81FF3E
:1017000011C031112E98E1EF4E2E55245A9408E065
:1017100010E080E40E942D06882391F12E9A2F9AE2
:101720000E941E0682E390E00E9420060E94250689
:101730008111F8CF0E94960310925201109251012C
:101740001092500110924F012FB7F89480914701E9
:1017500090914801A0914901B0914A012FBF209179
:101760004D01222309F4D3C010924D0180E090E096
:10177000892B51F30E940000E7CF3E983F98B8CFE5
:10178000992031F044E04416510411F42E9A2F9818
:1017900081E00E94A303920157FE04C02227332751
:1017A0002419350927703327C20157FC079673E0C7
:1017B000959587957A95E1F757FE05C00197D80171
:1017C000A21BB30B9D01AC015695542F442757958E
:1017D00047954F585E4FB0E0A0E03801621A730A97
:1017E0008E3FEFEF9E0709F43BC06A01F4E9CF0E8C
:1017F000D11C7A0170E060E0FD01E455FA4F5F0111
:101800008F3F980779F0F501E60FF71FE491F0E0BC
:101810001F01022E01C0220C0A94EAF7F701848806
:101820002828248A2115310581F0F501E60FF71FDC
:10183000E491F0E01F01062C02C0359427940A942D
:10184000E2F7F6018080282820826F5F7F4FFFEF4C
:10185000CF1ADF0AEFEFEE1AFE0A6835710581F63E
:101860000196A85ABF4F40585F4FA03BB10509F001
:10187000B7CF0E9438068FE090E00E942006FFEF6D
:101880004F1A5F0A29E14216510409F042CF99200C
:1018900011F02F9A2D9880E991E00E9420060E9475
:1018A0001E0681E090E00E94E70680FF3BCF8AE0C1
:1018B00090E00E94E7069FEF980F9E3F08F032CF1E
:1018C00022E330E03093500120934F0128E330E0D1
:1018D00030935201209351014BE050E05A834983E9
:1018E000682F81EC95E00E94590689819A810E94B7
:1018F000E706A981BA811196BA83A983519781F726
:101900000E94380688EE93E00E9420060BCF2091BB
:101910004E01E82FE21BE03140F4EF3009F426CF0E
:1019200081E083BF889513BE21CF21E020934D0134
:1019300080934E0180914B0190914C0101969093C0
:101940004C0180934B010E94960310925201109219
:1019500051011092500110924F01312C212CB101F4
:10196000660F771F072E000C880B990B0E945A12E6
:1019700020E030E040E05CE30E940F1320E030E024
:1019800040E85FE30E943E116B017C01209157010A
:10199000309158014091590150915A010E940F1302
:1019A00020910C0130910D0140910E0150910F01D9
:1019B0000E943F116D837E838F8398872091080159
:1019C0003091090140910A0150910B01C701B60104
:1019D0000E940F1320915301309154014091550101
:1019E000509156010E943F1169877A878B879C87A7
:1019F00020910401309105014091060150910701A9
:101A00002D873E874F87588BCA01B9010E94221249
:101A10004B018B018091000190910101A091020185
:101A2000B0910301898B9A8BAB8BBC8BBC01CD0130
:101A30000E9422122B017C8F6B8F20E030E0A901E5
:101A40006D817E818F8198850E94AB11882309F476
:101A50003AC12D813E814F81588560E070E080E879
:101A60009FE30E94B01169837A838B839C8320E07B
:101A700030E0A9010E940A1318164CF029813A811E
:101A80004B815C81505829833A834B835C8320E0EF
:101A900030E0A90169857A858B859C850E94AB1110
:101AA0004AECC42E42EFD42E49E4E42E41E7F42E52
:101AB0008823B9F029853A854B855C8560E070E024
:101AC00080E89FE30E94B0116B017C0120E030E0D0
:101AD000A9010E940A13181624F0F7FAF094F7F8F7
:101AE000F094B401990C880B990B0E945A124B0187
:101AF0005C0120E030E0A9016D817E818F819885B5
:101B00000E94AB1187FFE8C0A50194016D857E8519
:101B10008F8598890E943E1129813A814B815C8191
:101B20000E940F134B015C01AFEFBFEFBE8BAD8B7B
:101B3000B201550C880B990B0E945A122B013C01E3
:101B400020E030E0A90169857A858B859C850E941B
:101B5000AB1187FFDCC0A301920169897A898B8967
:101B60009C890E943E11A70196010E940F132B0130
:101B70003C012FEF3FEF388F2F8BA3019201C5015E
:101B8000B4010E94AB1187FFDBC029813A814B81F0
:101B90005C81C501B4010E943F114B015C018D893C
:101BA0009E89080F191F1A8E198E6B8D7C8DC801A6
:101BB0000E94BC06882309F3498D5A8D61E070E0CC
:101BC000452B09F0D2C08D899E89681B790B7595CC
:101BD0006795072E000C880B990B0E945A126B0117
:101BE0007C01B801110F880B990B0E945A122D85A8
:101BF0003E854F8558890E943E119B01AC01C7016B
:101C0000B6010E943F112D813E814F8158850E946F
:101C1000B0116B017C01AC019B0160E070E080E8D9
:101C200092E40E94B0110E9422127A83698377FFA6
:101C300005C0AB014F5F5F4F5A834983A981BA81C9
:101C4000B595A795B195A195B1099096BA83A98349
:101C5000B7FF02C01A8219828B0177FF02C00F5FA3
:101C60001F4F15950795005E1F4F0034110514F0A6
:101C70000FE310E020E030E040E85FE3C701B60189
:101C80000E94AB1187FF98C0B9810B1BE981FA81D3
:101C9000E00FF11D8F01C8010134110514F080E43B
:101CA00090E029813A81281739070CF09AC041E069
:101CB000B901C1010E943B0649815A814F5F5F4FC4
:101CC0005A834983E8CF8AEC92EFA9E4B1E789838C
:101CD0009A83AB83BC83DBCE20E030E040E85FE357
:101CE000C501B4010E943F112D853E854F8558895D
:101CF0000E943E1129813A814B815C810E940F1321
:101D00004B015C01E1E0F0E0FE8BED8B11CF20E0B8
:101D100030E040E85FE3C301B2010E943F1129892E
:101D20003A894B895C890E943E11A70196010E9465
:101D30000F132B013C0141E050E0588F4F8B1DCF1A
:101D4000A7019601C301B2010E943F112B013C0182
:101D5000AB8DBC8DEF89F88DAE0FBF1FBC8FAB8FE5
:101D600021E030E03A8F298F20CFAF89B88D6A1BF0
:101D70007B0B75956795072E000C880B990B0E94BD
:101D80005A126B017C01EB8DFC8DBF01FF0F880B9C
:101D9000990B0E945A1229893A894B895C890E94C1
:101DA0003E119B01AC01C701B6010E943F1129857C
:101DB0003A854B855C852BCF89819A818017910765
:101DC00084F4820D931D80FD06C041E069817A8113
:101DD000C1010E943B06A981BA811196BA83A983E9
:101DE000EBCFBFEF2B1A3B0AE0E82E16310409F0C7
:101DF000B6CD80E80E942D06882309F468C0409083
:101E000000015090010160900201709003012DECDF
:101E10003CEC4CE45DE360910C0170910D0180910C
:101E20000E0190910F010E940F1320910401309137
:101E3000050140910601509107010E943F116B017D
:101E40007C01C301B2010E9422124B01C701B601FD
:101E50000E942212CB01B4010E94BC06811108C06D
:101E6000C0920401D0920501E0920601F0920701B0
:101E70002DEC3CEC4CE45DE3609153017091540116
:101E800080915501909156010E940F13A301920178
:101E90000E943F116B017C010E9422124B01609154
:101EA00004017091050180910601909107010E9443
:101EB0002212CB01B4010E94BC06811108C0C0925D
:101EC0000001D0920101E0920201F092030180E151
:101ED0000E942D06882309F46CC0409000015090A8
:101EE000010160900201709003012DEC3CEC4CE488
:101EF0005DE360910C0170910D0180910E01909154
:101F00000F010E940F139B01AC01609104017091BD
:101F1000050180910601909107010E943E116B011D
:101F20007C01C301B2010E9422124B01C701B6011C
:101F30000E942212CB01B4010E94BC06811108C08C
:101F4000C0920401D0920501E0920601F0920701CF
:101F50002DEC3CEC4CE45DE3609153017091540135
:101F600080915501909156010E940F139B01AC0185
:101F7000C301B2010E943E116B017C010E9422123A
:101F80004B016091040170910501809106019091CF
:101F900007010E942212CB01B4010E94BC068111EC
:101FA00008C0C0920001D0920101E0920201F092BB
:101FB000030180E20E942D06882309F4A0C08090CE
:101FC0000C0190900D01A0900E01B0900F01C090F7
:101FD0005301D0905401E0905501F090560123E850
:101FE00032EE4FE75FE3C501B4010E940F132B01EE
:101FF0003C012FE139EB45EF5CE3C701B6010E94DC
:102000000F139B01AC01C301B2010E943E1160930A
:102010000C0170930D0180930E0190930F012FE13D
:1020200039EB45EF5CE3C501B4010E940F134B018E
:102030005C0123E832EE4FE75FE3C701B6010E947F
:102040000F139B01AC01C501B4010E943F116093C5
:1020500053017093540180935501909356018090E1
:10206000570190905801A0905901B0905A01C0902A
:102070000801D0900901E0900A01F0900B0123E8DB
:1020800032EE4FE75FE3C501B4010E940F132B014D
:102090003C012FE139EB45EF5CE3C701B6010E943B
:1020A0000F139B01AC01C301B2010E943E1160936A
:1020B0005701709358018093590190935A012FE171
:1020C00039EB45EF5CE3C501B4010E940F134B01EE
:1020D0005C0123E832EE4FE75FE3C701B6010E94DF
:1020E0000F139B01AC01C501B4010E943F11609325
:1020F00008017093090180930A0190930B0180E419
:102100000E942D06882309F4A0C080900C019090B5
:102110000D01A0900E01B0900F01C0905301D0901E
:102120005401E0905501F090560123E832EE4FE75C
:102130005FE3C501B4010E940F132B013C012FE1A5
:1021400039EB45EF5CE3C701B6010E940F139B0119
:10215000AC01C301B2010E943F1160930C01709366
:102160000D0180930E0190930F012FE139EB45EFA4
:102170005CEBC501B4010E940F134B015C0123E825
:1021800032EE4FE75FE3C701B6010E940F139B01D8
:10219000AC01C501B4010E943F11609353017093DB
:1021A000540180935501909356018090570190906F
:1021B0005801A0905901B0905A01C0900801D090E8
:1021C0000901E0900A01F0900B0123E832EE4FE79D
:1021D0005FE3C501B4010E940F132B013C012FE105
:1021E00039EB45EF5CE3C701B6010E940F139B0179
:1021F000AC01C301B2010E943F116093570170937B
:1022000058018093590190935A012FE139EB45EF22
:102210005CEBC501B4010E940F134B015C0123E884
:1022200032EE4FE75FE3C701B6010E940F139B0137
:10223000AC01C501B4010E943F1160930801709385
:10224000090180930A0190930B010E9438068ECAFF
:10225000F999FECF92BD81BDF89A992780B508956E
:10226000262FF999FECF1FBA92BD81BD20BD0FB6B2
:10227000F894FA9AF99A0FBE019608955058BB2720
:10228000AA270E9456110C94D0120E94C21238F054
:102290000E94C91220F039F49F3F19F426F40C94DF
:1022A000BF120EF4E095E7FB0C94B912E92F0E94DF
:1022B000E11258F3BA17620773078407950720F0F5
:1022C00079F4A6F50C9403130EF4E0950B2EBA2FB7
:1022D000A02D0B01B90190010C01CA01A00111242C
:1022E000FF27591B99F0593F50F4503E68F11A16D8
:1022F000F040A22F232F342F4427585FF3CF469569
:1023000037952795A795F0405395C9F77EF41F168A
:10231000BA0B620B730B840BBAF09150A1F0FF0F54
:10232000BB1F661F771F881FC2F70EC0BA0F621F40
:10233000731F841F48F4879577956795B795F79530
:102340009E3F08F0B0CF9395880F08F09927EE0FC5
:102350009795879508950E94951208F481E0089555
:102360000E94C4110C94D0120E94C91258F00E940D
:10237000C21240F029F45F3F29F00C94B9125111B8
:102380000C9404130C94BF120E94E11268F3992379
:10239000B1F3552391F3951B550BBB27AA27621761
:1023A0007307840738F09F5F5F4F220F331F441F6E
:1023B000AA1FA9F335D00E2E3AF0E0E832D09150A2
:1023C0005040E695001CCAF72BD0FE2F29D0660F8F
:1023D000771F881FBB1F261737074807AB07B0E8D2
:1023E00009F0BB0B802DBF01FF2793585F4F3AF0D8
:1023F0009E3F510578F00C94B9120C9404135F3F82
:10240000E4F3983ED4F3869577956795B795F7955D
:102410009F5FC9F7880F911D9695879597F9089545
:10242000E1E0660F771F881FBB1F621773078407E1
:10243000BA0720F0621B730B840BBA0BEE1F88F7F0
:10244000E09508950E9429126894B1110C94041328
:1024500008950E94E91288F09F5798F0B92F9927A4
:10246000B751B0F0E1F0660F771F881F991F1AF07F
:10247000BA95C9F714C0B13091F00E940313B1E0CE
:1024800008950C940313672F782F8827B85F39F0CD
:10249000B93FCCF3869577956795B395D9F73EF418
:1024A00090958095709561957F4F8F4F9F4F0895C0
:1024B000E89409C097FB3EF49095809570956195DE
:1024C0007F4F8F4F9F4F9923A9F0F92F96E9BB2794
:1024D0009395F695879577956795B795F111F8CF10
:1024E000FAF4BB0F11F460FF1BC06F5F7F4F8F4F7B
:1024F0009F4F16C0882311F096E911C0772321F071
:102500009EE8872F762F05C0662371F096E8862F08
:1025100070E060E02AF09A95660F771F881FDAF75F
:10252000880F9695879597F90895990F0008550F8C
:10253000AA0BE0E8FEEF16161706E807F907C0F049
:1025400012161306E407F50798F0621B730B840B51
:10255000950B39F40A2661F0232B242B252B21F42B
:1025600008950A2609F4A140A6958FEF811D811DCB
:10257000089597F99F6780E870E060E008959FEF05
:1025800080EC089500240A9416161706180609060A
:10259000089500240A9412161306140605060895D9
:1025A000092E0394000C11F4882352F0BB0F40F461
:1025B000BF2B11F460FF04C06F5F7F4F8F4F9F4FA1
:1025C000089557FD9058440F551F59F05F3F71F023
:1025D0004795880F97FB991F61F09F3F79F087958A
:1025E0000895121613061406551FF2CF4695F1DF13
:1025F00008C0161617061806991FF1CF86957105A3
:10260000610508940895E894BB2766277727CB01D6
:1026100097F908950E94951208F48FEF08950E948B
:1026200022130C94D0120E94C21238F00E94C912D8
:1026300020F0952311F00C94B9120C94BF121124C0
:102640000C9404130E94E11270F3959FC1F3950F4F
:1026500050E0551F629FF001729FBB27F00DB11D26
:10266000639FAA27F00DB11DAA1F649F6627B00DB6
:10267000A11D661F829F2227B00DA11D621F739F9F
:10268000B00DA11D621F839FA00D611D221F749FAD
:102690003327A00D611D231F849F600D211D822FF4
:1026A000762F6A2F11249F5750409AF0F1F088231B
:1026B0004AF0EE0FFF1FBB1F661F771F881F915048
:1026C0005040A9F79E3F510580F00C94B9120C942C
:1026D00004135F3FE4F3983ED4F3869577956795AE
:1026E000B795F795E7959F5FC1F7FE2B880F911D72
:1026F0009695879597F90895EE0FFF1F0590F49131
:08270000E02D0994F894FFCFCD
:102708000000484200004842C3F5283F000080BF4F
:10271800FFFFFFFF00E100000000000000C1808112
:102728000000000000000001049905220417046855
:1027380004260444040000000059061405E406E3D6
:02274800060089
:00000001FF
