:100000000C942E040C9456040C9456040C94560430
:100010000C9456040C9456040C9456040C945604F8
:100020000C9456040C9456040C943B0B0C94AA0BA1
:100030000C9456040C9456040C9456040C945604D8
:100040000C9456040C94ED0E0C9456040C94560427
:100050000C9456040C9456040C9456040C94DC0D29
:100060000C9456040C9456040C9456040C945604A8
:100070000C9456040C9456040C9456040C94560498
:100080000C94260E0C9456040C9456040C945604AE
:100090000C9456040C9456040C9456040C94560478
:1000A0000C9456040C9456040C94560405A84CCD9C
:1000B000B2D44EB93836A9020C50B9918688083CA2
:1000C000A6AAAA2ABE000000803F00000000003E51
:1000D0005B4F5B3E3E6B4F6B3E1C3E7C3E1C183CB8
:1000E0007E3C181C577D571C1C5E7F5E1C00183C14
:1000F0001800FFE7C3E7FF0018241800FFE7DBE75D
:10010000FF30483A060E2629792926407F05050743
:10011000407F05253F5A3CE73C5A7F3E1C1C08089F
:100120001C1C3E7F14227F22145F5F005F5F060964
:100130007F017F006689956A606060606094A2FFBD
:10014000A29408047E040810207E201008082A1CAF
:1001500008081C2A08081E101010100C1E0C1E0C7B
:1001600030383E3830060E3E0E060000000000001B
:10017000005F00000007000700147F147F14242A8A
:100180007F2A12231308646236495620500008075C
:100190000300001C2241000041221C002A1C7F1C7D
:1001A0002A08083E0808008070300008080808087F
:1001B000000060600020100804023E5149453E00E6
:1001C000427F400072494949462141494D33181444
:1001D000127F1027454545393C4A49493141211193
:1001E00009073649494936464949291E0000140085
:1001F00000004034000000081422411414141414A8
:10020000004122140802015909063E415D594E7C05
:100210001211127C7F494949363E414141227F41BA
:1002200041413E7F494949417F090909013E414118
:1002300051737F0808087F00417F41002040413F03
:10024000017F081422417F404040407F021C027F12
:100250007F0408107F3E4141413E7F090909063E67
:100260004151215E7F091929462649494932030136
:100270007F01033F4040403F1F2040201F3F403848
:10028000403F631408146303047804036159494D23
:1002900043007F4141410204081020004141417F59
:1002A00004020102044040404040000307080020CF
:1002B000545478407F2844443838444444283844CF
:1002C00044287F385454541800087E090218A4A406
:1002D0009C787F0804047800447D40002040403D25
:1002E000007F1028440000417F40007C047804789F
:1002F0007C080404783844444438FC182424181832
:10030000242418FC7C08040408485454542404048D
:100310003F44243C4040207C1C2040201C3C40307A
:10032000403C44281028444C9090907C4464544CA9
:100330004400083641000000770000004136080004
:1003400002010204023C2623263C1EA1A161123AAE
:100350004040207A385454555921555579412154FB
:10036000547841215554784020545579400C1E5200
:1003700072123955555559395454545939555454A4
:10038000580000457C410002457D420001457C400B
:10039000F0292429F0F0282528F07C545545002028
:1003A00054547C547C0A097F4932494949323248C5
:1003B000484832324A4848303A4141217A3A42402C
:1003C0002078009DA0A07D39444444393D40404000
:1003D0003D3C24FF2424487E4943662B2FFC2F2BD1
:1003E000FF0929F620C0887E090320545479410072
:1003F00000447D413048484A32384040227A007AF1
:100400000A0A727D0D19317D2629292F28262929CE
:10041000292630484D4020380808080808080808F0
:10042000382F10C8ACBA2F102834FA00007B000017
:1004300008142A142222142A14089500220095AACE
:10044000005500AAAA55AA55AA000000FF001010E6
:1004500010FF00141414FF001010FF00FF1010F024
:1004600010F0141414FC001414F700FF0000FF0037
:10047000FF1414F404FC141417101F10101F101F85
:100480001414141F00101010F0000000001F1010B2
:1004900010101F10101010F010000000FF101010AE
:1004A000101010101010FF10000000FF140000FFCB
:1004B00000FF00001F10170000FC04F414141710B4
:1004C000171414F404F40000FF00F71414141414A7
:1004D0001414F700F7141414171410101F101F141D
:1004E0001414F4141010F010F000001F101F00007E
:1004F000001F14000000FC140000F010F01010FFAA
:1005000010FF141414FF141010101F00000000F04E
:1005100010FFFFFFFFFFF0F0F0F0F0FFFFFF000023
:10052000000000FFFF0F0F0F0F0F38444438447CCA
:100530002A2A3E147E02020606027E027E026355CD
:100540004941633844443C04407E201E2006027E1C
:10055000020299A5E7A5991C2A492A1C4C7201722E
:100560004C304A4D4D303048784830BC625A463D98
:100570003E494949007E0101017E2A2A2A2A2A444D
:10058000445F444440514A444040444A5140000082
:10059000FF0103E080FF000008086B6B083612368D
:1005A0002436060F090F060000181800000010106E
:1005B000003040FF0101001F01011E00191D17122C
:1005C000003C3C3C3C0000000000060115012601F7
:1005D00037014A015D01720188019F01B801D20112
:1005E000EE010B022A024B026E029302BA02E402EF
:1005F00010033F037003A403DC031704550497049E
:10060000DD0427057505C80520067D06E0064907B7
:10061000B8072D08A9082D09B9094D0AEA0A900B57
:10062000400CFA0CC00D910E6F0F5A1053115B1253
:1006300072139A14D41520178018F519801B231DE6
:10064000DE1EB420A622B524E4263429A72B402E92
:100650000031EA330037453ABC3D68414C456B49AF
:10066000C84D68524F57805C006210111213151666
:1006700017181A1C1D1F21232527292C2E3134372A
:100680003A3E4145494E52575C62686E757B838B9A
:10069000939CA5AFB9C4D0DCE9F7000000020009C3
:1006A0000F0000030401000C000000000000000027
:1006B000000000000000000000F0F89C8E87838797
:1006C0008E9CF8F00000FEFF0303030303070EFCFB
:1006D000F80000FEFF0303030303070EFCF800000D
:1006E000FFFF00000000000000FFFF0000FEFF838E
:1006F00083838383C7EE7C380000F8FC0E07030376
:1007000003070EFCF800003F7FE0C08080C0E07F60
:100710003FFFFF01010101010101FFFF0000FFFF99
:100720000C0C0C0C1C3E77E3C100007FFFC0C0C066
:10073000C0C0E0703F1F00001F3F70E0C0C0C0E0BD
:10074000703F1F00007FFFC1C1C1C1C1E3773E1CE4
:1007500000001F3F70E0C0C0C0E0703F1F000000FD
:10076000000001FFFF01000000000000002400273E
:10077000002A002D003000D5F08D14A1C881CFD9FA
:10078000F1AF200014021302120215020702080240
:1007900004010C01060100080B000202020000091E
:1007A00004000001020200000524001001052401DC
:1007B0000101042402060524060001070581031037
:1007C000004009040100020A00000007050202407F
:1007D0000000070583024000000403090412010021
:1007E00002EF020140412336800001010203014172
:1007F000726475696E6F204C4C4300417264756978
:100800006E6F204C656F6E6172646F0004080201A8
:100810001040804010204080408008020401804049
:100820002010020110801020404020000000002510
:100830000028002B002E00310004040404040304EB
:10084000050202020204030202020206060606066E
:1008500006040402020204040301580F11241FBEFF
:10086000CFEFDAE0DEBFCDBF11E0A0E0B1E0ECE118
:10087000F8E302C005900D92A234B107D9F727E042
:10088000A2E4B1E001C01D92A036B207E1F714E086
:10089000CEE2D4E004C02197FE010E94ED1BCD32D0
:1008A000D107C9F70E948B0F0C940C1C0C9400000C
:1008B0008AE593E020E0B22FB111BFEFFC010024E4
:1008C000B193B193B193B1930394D1F70895FC011F
:1008D0008091EE02882311F13FB7F89482E0809373
:1008E000E9002091F200822F90E01816190614F406
:1008F00081E090E0882339F0289844E64093ED02A7
:100900004091F1004083222339F02091F20021111F
:1009100003C02BE62093E8003FBF08958FEF9FEFC1
:1009200008952FB7F89483E08093E9009091E80050
:10093000892F807295FF04C09091F20080E4891B9A
:100940002FBF08958091E50281110DC082E0809350
:10095000E10284E08093E2021092E4021092E3024A
:1009600081E08093E50281EE92E00895CF93DF93DA
:100970001F92CDB7DEB76983DC01ED91FC91028057
:10098000F381E02D41E050E0BE016F5F7F4F09959C
:100990000F90DF91CF91089583E08093E9008091DB
:1009A000F200882319F08AE38093E80008950E94FA
:1009B000910490E00895CF93DF931F92CDB7DEB7F7
:1009C000FC018485958597FD08C02FEF3FEF3587A3
:1009D00024870F90DF91CF910895CE0101960E9458
:1009E0006704019719F4898190E0F3CF8FEF9FEFAF
:1009F000F0CF0F931F93CF93DF931F92CDB7DEB746
:100A00008C01FC018485958597FF0BC0CE01019672
:100A10000E946704019771F4898190E0F80195873D
:100A20008487F801848595850F90DF91CF911F9180
:100A30000F9108958FEF9FEFF1CFFC01848595858D
:100A400097FD0BC09FB7F89482E08093E9008091F6
:100A5000F2009FBF90E0019608959FB7F89482E05E
:100A60008093E9008091F2009FBF90E0089540914B
:100A7000DB025091DC022091D9023091DA02421758
:100A80005307B4F49091E8009570E1F39091E80079
:100A900092FD19C08093F1008091DB029091DC02FD
:100AA00001968F739927892B19F48EEF8093E800B4
:100AB0008091DB029091DC0201969093DC0280939E
:100AC000DB0281E0089580E00895EF92FF920F939A
:100AD0001F93CF93DF93F82E192FE62E042F81E07A
:100AE000860F880F0E94370583E00E943705CF2DBF
:100AF000D12FEC0EFD2EF11CCE15DF05B9F007FF4E
:100B000013C0FE0184910E943705182F80E00E94D7
:100B10003705812321968111EFCFDF91CF911F916E
:100B20000F91FF90EF9008958881EDCF81E0F5CF90
:100B3000DF92EF92FF920F931F93CF93DF93D82E04
:100B40008A01EB017B01E40EF51ECE15DF0559F09D
:100B5000D7FE12C0FE0184910E94370521968111B3
:100B6000F4CF0FEF1FEFC801DF91CF911F910F91CD
:100B7000FF90EF90DF9008958881EECF0F931F9341
:100B8000CF93DF931F92CDB7DEB782E0898342E433
:100B900050E067E977E080E80E9498050E94A2048F
:100BA000DC0112960D911C910115110589F0D801F7
:100BB000ED91FC910280F381E02DBE016F5F7F4FCC
:100BC000C801099597FD04C0F80100851185ECCF97
:100BD00089810F90DF91CF911F910F9108956150FE
:100BE00030F02091F100FC0120830196F8CF289885
:100BF00084E68093ED020895AF92BF92CF92DF9288
:100C0000EF92FF920F931F93CF93DF936C017B01C1
:100C10008B01040F151FEB015E01AE18BF08C01752
:100C2000D10759F06991D601ED91FC910190F081C5
:100C3000E02DC6010995892B79F7C501DF91CF9188
:100C40001F910F91FF90EF90DF90CF90BF90AF90EA
:100C50000895282F30E0F901E656F94F9491F901F3
:100C6000E45FF74F8491275C374FF90124912223E9
:100C700009F430C09923E9F091509F30D0F4E92F66
:100C8000F0E0EB5BF94F0C94ED1B7306770654060E
:100C90006B066F065906590659067A0680068406C1
:100CA00088068E0659069206909180009F77909351
:100CB0008000E22FF0E0EE0FFF1FE55DF74FA591FA
:100CC000B4919FB7F894EC91611132C080958E2356
:100CD0008C939FBF0895909180009F7DE8CF909165
:100CE0008000977FE4CF94B59F7794BDE2CF94B511
:100CF0009F7DFBCF909190009F7790939000D9CFEC
:100D0000909190009F7DF9CF90919000977FF5CFC3
:100D10009091C0009F779093C000CBCF9091C0007E
:100D20009F7DF9CF9091C200977F9093C200C1CF71
:100D30008E2BCECFCF93DF9390E0FC01E45FF74F93
:100D40002491875C974FFC0184918823C9F090E03F
:100D5000880F991FFC01E759F84FA591B491FC0148
:100D6000E55DF74FC591D49161110DC09FB7F8941F
:100D70008C91209582238C938881282328839FBF80
:100D8000DF91CF910895623051F49FB7F8943C9170
:100D9000822F809583238C93E8812E2BEFCF8FB702
:100DA000F894EC912E2B2C938FBFEACF1F93CF9307
:100DB000DF93182FEB0161E00E949A06209739F427
:100DC00060E0812FDF91CF911F910C942906CF3FD6
:100DD000D10511F461E0F5CFE12FF0E0E656F94FCF
:100DE000E491E150EF3008F07FC0F0E0E650F94FB9
:100DF0000C94ED1B09071107160720072A07740733
:100E00007407740734073E07480752075F077407E3
:100E1000670784B5806884BDC7BDDF91CF911F91FE
:100E2000089584B5806284BDC8BDF7CF80918000ED
:100E3000806880938000D0938900C0938800EDCFB4
:100E400080918000806280938000D0938B00C0935B
:100E50008A00E3CF80918000886080938000D093E7
:100E60008D00C0938C00D9CF8091900080688093D2
:100E70009000D0939900C0939800CFCF80919000BC
:100E8000806280939000D0939B00C0939A00C5CF5E
:100E900080919000886080939000D0939D00C093D3
:100EA0009C00BBCF8091C00080688093C00080917F
:100EB000C0008F7B8093C000C093CF00AECF8091E5
:100EC000C00080628093C000C093D000A6CF809104
:100ED000C20088608093C2008091C2008B7F8093A3
:100EE000C200C093D20099CFC038D1050CF072CFA8
:100EF00067CF3FB7F8948091510190915201A09132
:100F00005301B091540126B5A89B05C02F3F19F09D
:100F10000196A11DB11D3FBFBA2FA92F982F882779
:100F2000BC01CD01620F711D811D911D42E0660F54
:100F3000771F881F991F4A95D1F708958F929F9226
:100F4000AF92BF92CF92DF92EF92FF924B015C0182
:100F50000E9479076B017C010E9479076C197D0959
:100F60008E099F09683E734081059105A8F321E031
:100F7000821A9108A108B10888EEC80E83E0D81E35
:100F8000E11CF11C81149104A104B10429F7FF9024
:100F9000EF90DF90CF90BF90AF909F908F9008958B
:100FA0008F929F92AF92BF92CF92DF92EF92FF9279
:100FB0000F931F93CF93DF936C017B018A01809184
:100FC0001B01882309F45CC08091EE02882309F498
:100FD00057C08091E00280FF05C08091E0008260F0
:100FE0008093E000E801B12C8AEFA82E93E0892ECF
:100FF0002AE3922E209711F4BB20D9F10E9491048C
:1010000081110AC0AA94AA20D9F161E070E080E0C1
:1010100090E00E949E07EECF8C171D0611F00CF099
:101020008C2F9FB7F8948092E9002091E80025FD6D
:1010300002C09FBFDFCF282F30E0C21BD30BF701C8
:10104000815020F041914093F100FACFE20EF31E5F
:10105000BB2021F09092E800B12CEBCF8091E8000A
:1010600085FDE7CF9092E800BB24B394209709F365
:10107000F3CF5D9884E68093DF02101611063CF0F2
:1010800081E090E0F6019383828310E000E0C801E4
:10109000DF91CF911F910F91FF90EF90DF90CF9054
:1010A000BF90AF909F908F9008954FB18CB123B1B6
:1010B00090E08095909533E0959587953A95E1F786
:1010C000887030E020953095359527953595279592
:1010D0002470822B942F9095907F892B0895FC018A
:1010E00021912EBD9C5F21910DB407FEFDCF2EBD39
:1010F000E817F907C1F70DB407FEFDCF0895CF92A9
:10110000DF92EF92FF920F931F93CF93E82FF0E0BF
:10111000E85AF74FC491E62FF0E0603398F5E659AE
:10112000F94FE4910E2F10E0F12CE12C60E074E215
:1011300084EF90E0A70198010E946E1821503109B8
:101140004109510991E02115310581E04807510518
:101150006CF060E970ED83E090E0A70198010E94D7
:101160006E18215031094109510993E0C13089F0CD
:10117000C330F9F0CF911F910F91FF90EF90DF9066
:10118000CF900895EE0FFF1FE659FA4F0591149185
:10119000CBCF80918100887F892B80938100309311
:1011A00089002093880080916F00826080936F0097
:1011B000E1CF80919100887F892B809391003093BB
:1011C00099002093980010934F0100934E0181E005
:1011D00080934D0180917100826080937100CACF2D
:1011E000E82FF0E0E85AF74FE491E13019F0E330EE
:1011F00089F0089580916F008D7F80936F008091BA
:10120000F202E091F302F091F4029081809589233B
:101210008083089510924D018091EF02E091F002D9
:10122000F091F102F2CFCF93DF939091F5029230DB
:1012300081F0C82FE92FF0E0E85AF74FD4919F5F73
:101240009093F50261E00E949A06D13029F0D330E4
:1012500049F1DF91CF9108951092800010928100A2
:1012600080918100886080938100809181008160FD
:10127000809381008C2F90E0FC01E75CF74FE491B4
:10128000F0E0EE0FFF1FE55DF74F259134913093AD
:10129000F4022093F302845F974FFC0184918093C2
:1012A000F202D7CF1092900010929100809191009D
:1012B000886080939100809191008160809391007B
:1012C0008C2F90E0FC01E75CF74FE491F0E0EE0F2B
:1012D000FF1FE55DF74F259134913093F102209384
:1012E000F002845F974FFC0184918093EF0280911C
:1012F000F502882321F06CE380E00E947F0880E003
:10130000DF91CF910C94F0082F923F924F925F9211
:101310006F927F928F929F92AF92BF92CF92DF9205
:10132000EF92FF920F931F93CF93DF9300D000D0E3
:10133000CDB7DEB76A3069F5FC01EA5EFB4FDC0130
:10134000A85EBB4F2C9148E0249F9001112440815E
:101350005181240F351F318320838C5E9B4FDC012C
:101360001D921C920F900F900F900F90DF91CF91D4
:101370001F910F91FF90EF90DF90CF90BF90AF90B3
:101380009F908F907F906F905F904F903F902F90A5
:1013900008956D3039F3FC01E85EFB4FB08034975F
:1013A000408151810B2D10E0403851050CF08DC06B
:1013B000329680809180B0E48B1691040CF085C049
:1013C00075E09A01B79E200D311D112412161306E7
:1013D0000CF07BC09801E3E0220F331FEA95E1F7A0
:1013E000280D391D121613060CF06FC0679FB0014F
:1013F00011245C834B83B0E0A0E0FB01E653FF4F78
:101400001F01E0E0A53021F0F101EA0FFB1FE4919C
:10141000740138E0A32E4E2E512CE1707E2E6B818C
:101420007C81262FFB812F1B2B15E0F51A82198258
:1014300029812B15A0F56038710538F5C980DA804F
:10144000CE0CDF1C30E4C316D104F8F42E0D322F7D
:1014500036953695369520E8329FF0011124E60F37
:10146000F71F37E0C322DD2421E030E002C0220F65
:10147000331FCA94E2F769019F01280F391FF90150
:101480006488772049F0C628C48A29813A812F5F71
:101490003F4F3A832983CCCFC094C620F5CF6F5FEE
:1014A0007F4FBFCF55944794E42DAA94E00EF11ED0
:1014B000A110B1CF11962B813C81200F311F3C83AD
:1014C0002B83A630B10509F09CCF36E0B39E400DCA
:1014D000511D1124FC01EC5EFB4F51834083359676
:1014E0002081222309F43ECF6AEF60039001619FBF
:1014F000300D112420583F4F241735070CF032CF00
:10150000DC01ED91FC910190F081E02D6AE00F90FB
:101510000F900F900F90DF91CF911F910F91FF903F
:10152000EF90DF90CF90BF90AF909F908F907F9083
:101530006F905F904F903F902F900994089590E0A6
:1015400080E008950E94071C0F931F93CF93DF93B1
:10155000CDB7DEB72E970FB6F894DEBF0FBECDBF66
:10156000FC019B01009709F484C0672B09F481C03A
:1015700002E010E0B8010E94D91B019739F4C901BB
:10158000B8010E94D91B019709F453C0CF01822BE7
:1015900080FF6FC0FE87ED873C872B878EE390E04E
:1015A0009A83898384E0FE013D96DE0113960190C3
:1015B0000D928A95E1F784E0FE013B96DE011796D5
:1015C00001900D928A95E1F7FE0131966AEA7AEA76
:1015D00030E020E08191482F50E020FD37C0DB0152
:1015E00013E0B695A7951A95E1F7A49FC001A59FB2
:1015F000900DB49F900D1124AB015695542F4427A4
:101600005795479584279527682779272F5F3F4F60
:1016100026303105F9F690E080E023E030E040E04C
:1016200050E00E948D1821E061307105810591051F
:1016300009F020E0822F2E960FB6F894DEBF0FBE81
:10164000CDBFDF91CF911F910F910895CB01A5E000
:1016500096958795AA95E1F784279527AB01542F96
:101660004427550F550F550F840F951F8095909562
:10167000CBCF21E0DFCF1F920F920FB60F92112434
:101680008F939F938091E1009091E100937F9093DD
:10169000E10083FF0FC01092E90091E09093EB000E
:1016A0001092EC0092E39093ED001092EE0298E01D
:1016B0009093F00082FF22C093E09093E900909114
:1016C000F200992319F09AE39093E8009091DF02D9
:1016D000992341F09091DF0291509093DF02911194
:1016E00001C05D9A9091ED02992341F09091ED0235
:1016F00091509093ED02911101C0289A84FF18C077
:101700008091E2008E7E81608093E2008091E10012
:101710008F7E8093E1008091E0028E7E80618093D5
:10172000E0029F918F910F900FBE0F901F90189520
:1017300080FFF7CF8091E2008E7E80618093E2008F
:101740008091E1008E7E8093E1008091E0028E7EA8
:101750008160E5CF1F920F920FB60F921124CF92A6
:10176000DF92EF92FF920F931F932F933F934F932C
:101770005F936F937F938F939F93AF93BF93EF93F9
:10178000FF93CF93DF93CDB7DEB76C97DEBFCDBFAE
:101790001092E9008091E80083FF25C068E0CE0147
:1017A00045960E94EF0582EF8093E8008D8987FFC0
:1017B00039C09091E80090FFFCCF982F907609F007
:1017C00034C19E894F89588D2F89F88C911131C071
:1017D000803861F58091DE028093F1001092F10073
:1017E0008EEF8093E8006C960FB6F894DEBF0FBEC4
:1017F000CDBFDF91CF91FF91EF91BF91AF919F91BD
:101800008F917F916F915F914F913F912F911F9198
:101810000F91FF90EF90DF90CF900F900FBE0F9041
:101820001F9018959EEF9093E800C7CF1092F1009B
:10183000D5CF913059F48111D3CF4130510581F684
:101840008091DE028D7F8093DE02CACF933049F40F
:101850008111C6CF4130510519F68091DE028260B8
:10186000F2CF953041F48091E80080FFFCCF2068F2
:101870002093E300B5CF963009F0A9C00B8D1C8DE5
:1018800022E01092E9001092DC021092DB02F212C8
:101890002EC01092DA021092D9020E94BE051F8259
:1018A00099E09983FA8291E09E8390EA98879AEF73
:1018B00099872091DB023091DC02275F3F4F3C8308
:1018C0002B838D831092E9001092DC021092DB02D0
:1018D0001093DA020093D90249E050E0BE016F5F35
:1018E0007F4F80E00E9498050E94BE0579CF10933B
:1018F000DA020093D9020E94A204DC0112960D9133
:101900001C910115110509F451C1D801ED91FC910B
:101910000480F581E02DBE016B5E7F4FC801099503
:10192000009709F03EC1F80100851185EACFF3E088
:10193000FF120EC08F89882309F440C0823061F401
:1019400040E860E18BEF97E00E946505811148CF88
:1019500081E28093EB0047CF813029F440E86BE0CF
:101960008FEE97E0F1CF833099F70E94A204DC015B
:101970001296ED90FC908E010F5F1F4F6801E114ED
:10198000F10479F0D701ED91FC910680F781E02D0B
:10199000B801C7010995080F111DF701E084F18412
:1019A000EECFD8011C92F60101900020E9F73197A3
:1019B000BF016C197D0940E0C601C6CF69ED77E033
:1019C000FB01449150E080E80E94980509CF9730D0
:1019D00009F4BECF983021F481E08093F10000CF6C
:1019E000993009F0FDCE837009F0B2CFEDE1F1E05E
:1019F00081E031E096E32191222371F08093E900A8
:101A00003093EB00DF0111972C912093EC00909321
:101A1000ED008F5F873079F78EE78093EA001092B0
:101A2000EA008F898093EE02DBCE8B8D9C8D109225
:101A3000E9001092DC021092DB029093DA028093AC
:101A4000D902898D811192C08E899D89913A49F47C
:101A5000813209F07DCF47E050E064E171E080E041
:101A6000B3CF913209F074CF833269F48F89988DA6
:101A7000B0E0A0E08093100190931101A0931201B7
:101A8000B0931301ADCE803269F48091E80082FFFB
:101A9000FCCF67E084E191E00E94EF058BEF80933B
:101AA000E8009ECE823209F09BCE8F8980931B0185
:101AB000EEEFFFE7859194918B3F9C4D51F1E0E073
:101AC000F8E08091140190911501A0911601B09158
:101AD0001701803B9440A105B105F1F480911B01F1
:101AE00080FD1AC0EE3F8AE0F80789F587E797E79F
:101AF00091838083809160008093DD0288E19BE088
:101B00000FB6F894A895809360000FBE9093600084
:101B100067CEEEEFFAE0D5CF808191818737974786
:101B200009F05ECEA8958091600088618093600086
:101B30008091DD0280936000EE3F2AE0F20789F099
:101B40008091FE0A9091FF0A9183808349CE808123
:101B500091818737980751F29093FF0A8093FE0A8C
:101B6000C5CF1092FF0A1092FE0A3ACE0E94A2043C
:101B7000DC0112960D911C910115110509F4E8CEB6
:101B8000D801ED91FC910190F081E02DBE016B5EDA
:101B90007F4FC8010995811123CEF8010085118579
:101BA000EBCF181619060CF41BCED2CEF1E0FF12C3
:101BB000BECE6DED77E004CF1F920F920FB60F925D
:101BC00011242F933F938F939F93AF93BF93809153
:101BD0005D0190915E01A0915F01B0916001309133
:101BE000500123E0230F2D3758F50196A11DB11D9B
:101BF0002093500180935D0190935E01A0935F015B
:101C0000B09360018091510190915201A0915301D4
:101C1000B09154010196A11DB11D80935101909383
:101C20005201A0935301B0935401BF91AF919F9182
:101C30008F913F912F910F900FBE0F901F9018958D
:101C400026E8230F0296A11DB11DD2CF1F920F923D
:101C50000FB60F9211242F933F934F935F936F937F
:101C60007F938F939F93AF93BF93EF93FF93809155
:101C70004D01882349F08091EF02E091F002F0914C
:101C8000F10290818927808380915501882309F48E
:101C900056C08091490190914A01A0914B01B091A9
:101CA0004C01892B8A2B8B2B09F449C08091490167
:101CB00090914A01A0914B01B0914C010197A1096B
:101CC000B1098093490190934A01A0934B01B093CD
:101CD0004C01892B8A2B8B2B91F5E0914701F091D8
:101CE0004801BF016F5F7F4F7093480160934701C8
:101CF0002491922F907F822F8F70903819F40E9438
:101D0000F008EBCF903981F43296F0934801E093DC
:101D10004701FB0164919091F5028917F0F667FD88
:101D2000DCCF0E947F08D9CF903E29F41092480161
:101D300010924701D2CF903F99F410925501FF9134
:101D4000EF91BF91AF919F918F917F916F915F9133
:101D50004F913F912F910F900FBE0F901F901895AC
:101D600097FDBBCF3296F0934801E0934701FB010A
:101D70006491A0914E01B0914F01322F262F0E9405
:101D8000AF186C507E4F8F4F9F4F28EE33E040E0EE
:101D900050E00E948D182093490130934A014093EE
:101DA0004B0150934C018091490190914A01A091BF
:101DB0004B01B0914C01892B8A2B8B2B09F0BFCFA3
:101DC00081E090E0A0E0B0E08093490190934A0167
:101DD000A0934B01B0934C01B2CF1F920F920FB65C
:101DE0000F9211248F939F93AF93BF93EF93FF9321
:101DF00080914601882309F452C08091420190915C
:101E00004301A0914401B0914501892B8A2B8B2B72
:101E1000A1F19091F202E091F302F091F40280813D
:101E2000892780838091420190914301A0914401D0
:101E3000B0914501181619061A061B069CF48091EC
:101E4000420190914301A0914401B0914501019755
:101E5000A109B1098093420190934301A0934401E9
:101E6000B0934501FF91EF91BF91AF919F918F91F9
:101E70000F900FBE0F901F90189510924601809101
:101E80006F008D7F80936F008091F202E091F302EA
:101E9000F091F4029081809589238083E3CF909123
:101EA000F202E091F302F091F40280818927F5CFEC
:101EB000E6EFF2E01382128288EE93E0A0E0B0E059
:101EC00084839583A683B78387E291E0918380839F
:101ED0008FEF9FEF95878487E6E4F3E01382128209
:101EE00089E391E0918380838CE3868380E181871D
:101EF0001086178216861786108A118A128A109207
:101F00005B0710925A0710925D0710925C0781E000
:101F100080935E070895CF93DF93CDB7DEB7A29786
:101F20000FB6F894DEBF0FBECDBF789484B5826043
:101F300084BD84B5816084BD85B5826085BD85B56D
:101F4000816085BD80916E00816080936E001092EB
:101F50008100809181008260809381008091810066
:101F600081608093810080918000816080938000F7
:101F700080919100826080939100809191008160B6
:101F80008093910080919000816080939000809177
:101F9000C10084608093C1008091C1008260809301
:101FA000C1008091C10081608093C1008091C30015
:101FB00081608093C3008091C00082608093C000E4
:101FC0008091C20081608093C20080917A00846019
:101FD00080937A0080917A00826080937A00809169
:101FE0007A00816080937A0080917A008068809383
:101FF0007A001092EE021092DE021092E0028091BE
:10200000D70081608093D70080EA8093D80089B59B
:10201000806189BD89B5826089BD09B400FEFDCFAC
:1020200061E070E080E090E00E949E078091D8001F
:102030008F7C80618093D8008091E000807F8093C6
:10204000E0008091E1008E7E8093E1008DE080933E
:10205000E200559A209A0FB70983F89480915601AF
:10206000811127C0EAE4F8E08491EDE1F8E0949171
:10207000E82FF0E0EE0FFF1FE759F84FA591B4915C
:10208000EC91E92321F461E081E10E94290661E0FD
:1020900081E10E949A068CB580618CBD8CB580640C
:1020A0008CBD61E08FE00E949A0661E080E10E94B1
:1020B0009A06809156018F5F8093560119811FBF48
:1020C00004E817E01A83098369817A81FB0184910E
:1020D0006F5F7F4F3296FA83E983FB016491882317
:1020E00019F00E949A06F0CF61E086E00E9429066E
:1020F00061E070E080E090E00E949E0760E086E092
:102100000E9429066AE070E080E090E00E949E074D
:1021100061E086E00E942906E5E4F8E0E491F0E061
:10212000EE0FFF1FE55DF74F8591949190935C0151
:1021300080935B01E8E1F8E0E491E0935A01EDE37C
:10214000F8E0E491F0E0EE0FFF1FE55DF74F8591B9
:1021500094919093590180935801E0E1F8E0E49163
:10216000E09357018CB58C7F8CBD8DB581608DBDA2
:10217000E0915B01F0915C01908180915A01982B74
:102180009083A0915801B09159012C9190915701E1
:10219000909592239C939081809589238083E7E793
:1021A000F7E007E0E438F00749F084918EBD0000C5
:1021B0000DB407FEFDCF8EB53196F3CFE0915801F7
:1021C000F0915901808190915701892B8083E09192
:1021D0005B01F0915C01908180915A018095892387
:1021E00080838091640081608093640080916400AA
:1021F00082608093640080916400806880936400B2
:1022000080916400806480936400809165008160A7
:10221000809365000E94550887FF1AC080E094E013
:102220001EBC00000DB407FEFDCF2EB50197C1F70F
:1022300070E060E08AE00E94D60670E060E08BE02B
:102240000E94D60670E060E089E00E94D606FFCFCB
:10225000EEEE4E2E55245A9408E010E0B20169517A
:102260007F4F8AE00E94D6066FEF70E08BE00E94FD
:10227000D6066FEF70E089E00E94D6060E945804EF
:10228000742C20EF42160CF46FC0920157FE04C06C
:10229000222733272419350927703327C20157FC19
:1022A000079673E0959587957A95E1F757FE05C0F7
:1022B0000197A801421B530B9A01AC015695542F6C
:1022C0004427579547954A5B5C4FD12CC12C480158
:1022D000821A930A8F3F6FEF96070CF43AC07A0187
:1022E000A8EAEA0EF11CDA0170E060E0F601E754BA
:1022F000F94F5F018F3F980781F0F501E60FF71F57
:10230000E491022E01C0EE0F0A94EAF79896FC9130
:102310009897EF2B9896EC9398972115310581F0BB
:10232000F501E60FF71FE491F0E01F01082C02C051
:10233000359427940A94E2F7F701608026282082DA
:102340006F5F7F4FFFEFEF1AFF0A11966835710537
:1023500089F6019668E5C60ED11C40585F4FA0EB88
:10236000CA16D10409F0B6CF8AE593E00E946F083F
:102370006BE170E080E090E00E949E07B0EF7B127E
:1023800006C06AEF70E080E090E00E949E07EFEFE9
:102390004E1A5E0AF9E14F16510409F05FCF6EEE56
:1023A00072E080E090E00E949E076FEF70E08AE0AC
:1023B0000E94D6066FEF70E08BE00E94D6066FEFAA
:1023C00070E089E00E94D60685E00E9413098DE046
:1023D0000E9413091092550182E090E00E94661855
:1023E000882351F080916400877F809364008091FE
:1023F0006500877F8093650089EC92E0B1E62B2E23
:10240000B1E03B2ED10151961C921E925097B2E141
:102410002B0E311C82159305A9F70E9458041AA2AD
:1024200019A269A17AA1660F771F072E000C880BED
:10243000990B0E94DF1920E030E040E05CE30E944D
:10244000CE1A20E030E040E85FE30E94BE186B0146
:102450007C0100910C0110910D0120910E01309131
:102460000F010D831E832F8338872091080130913F
:10247000090140910A0150910B0129833A834B8352
:102480005C832091D5023091D6024091D7025091C1
:10249000D8020E94CE1A209104013091050140918A
:1024A0000601509107010E94BF1869877A878B87C0
:1024B0009C872091000130910101409102015091CF
:1024C0000301C701B6010E94CE1A2091D1023091BA
:1024D000D2024091D3025091D4020E94BF186D875E
:1024E0007E878F87988B6D817E818F8198850E94F2
:1024F000A7196B017A8B698B69817A818B819C81A9
:102500000E94A7196D8B7E8B8F8B988F0D891E89EA
:102510002D853E854F855889CA01B9010E94CE1A82
:102520002B013C0129853A854B855C85CA01B9019F
:102530000E94CE1A4B015C01AC019B01C301B201A8
:102540000E94351920E030E040E85FE30E94BF18A8
:102550000E94491B698F7A8F8B8F9C8FA3019201F8
:10256000C501B4010E94351920E030E040E85FE386
:102570000E94BF180E94491B2B013C01B601DD0CD3
:10258000880B990B0E94DF196B017C0120E030E081
:10259000A90169857A858B859C850E942B1987FF07
:1025A000DDC0A70196016D817E818F8198850E9493
:1025B000BE18298D3A8D4B8D5C8D0E94CE1A6B0111
:1025C0007C014FEF5FEF5E8F4D8FAD89BE89BD01FE
:1025D000BB0F880B990B0E94DF194B015C0120E0B7
:1025E00030E0A9016D857E858F8598890E942B1921
:1025F00087FFCFC0A501940169817A818B819C817D
:102600000E94BE18A30192010E94CE1A4B015C01E8
:10261000EFEFFFEFFE8BED8BA5019401C701B60133
:102620000E942B1987FFCEC0298D3A8D4B8D5C8D72
:10263000C701B6010E94BF186B017C0149895A8904
:102640008D8D9E8D480F591F5A8B498B18A21F8E56
:10265000B80189899A890E94A40A8823E9F22F8DFA
:1026600038A161E070E0232B09F0BDC00D8D1E8DF7
:10267000601B710B75956795072E000C880B990BE5
:102680000E94DF196B017C0109891A89B801110FB9
:10269000880B990B0E94DF192D813E814F8158854F
:1026A0000E94BE189B01AC01C701B6010E94BF1871
:1026B00029853A854B855C850E9435199B01AC01C3
:1026C00060E070E080E892E40E9435190E94A7194A
:1026D000AB01CB0177FD01969595879591958195F5
:1026E0009109809697FF02C090E080E09A0157FF21
:1026F00002C02F5F3F4F35952795205E3F4F203416
:10270000310514F02FE330E0281B280F392F311D3D
:10271000A9012134310514F040E450E084179507F5
:102720000CF086C0E82FE695E695E69540E8E49F34
:10273000F001112409A11AA1E00FF11FEA5BFC4F7F
:10274000AC014770552761E070E001C0660F4A9503
:10275000EAF74489462B448B0196DACF20E030E03B
:1027600040E85FE3C701B6010E94BF182D813E819A
:102770004F8158850E94BE18298D3A8D4B8D5C8DF6
:102780000E94CE1A6B017C0181E090E09E8F8D8FBC
:102790001CCF20E030E040E85FE3C501B4010E94B7
:1027A000BF1829813A814B815C810E94BE18A30128
:1027B00092010E94CE1A4B015C0121E030E03E8B79
:1027C0002D8B2ACFA3019201C501B4010E94BF182D
:1027D0004B015C01AD89BE890A0F1B1FE1E0F0E0EF
:1027E000F8A3EF8F35CF2D893E89621B730B75954A
:1027F0006795072E000C880B990B0E94DF196B015F
:102800007C01B801110F880B990B0E94DF192981F7
:102810003A814B815C810E94BE189B01AC01C701CB
:10282000B6010E94BF182D853E854F85588944CF3B
:1028300009A11AA10F5F1F4F1AA309A300381105A0
:1028400009F0EFCD8091CD029091CE02A091CF0200
:10285000B091D0028093C9029093CA02A093CB0298
:10286000B093CC022FB7F89460915D0170915E0136
:1028700080915F01909160012FBF0E94DD196093EC
:10288000CD027093CE028093CF029093D00220911C
:10289000C9023091CA024091CB025091CC020E94F1
:1028A000BE1820E030E04AE754E40E9435196B017D
:1028B0007C0120E030E040EA50E40E94CE1A2B0177
:1028C0003C0120E030E040E450E4C701B6010E9442
:1028D000CE1A6D837E838F8398870E94550887FF69
:1028E00068C0C0900801D0900901E0900A01F09002
:1028F0000B01209104013091050140910601509196
:102900000701C301B2010E94CE1A20910C0130913F
:102910000D0140910E0150910F010E94BF184B0113
:102920005C01C701B6010E94A71969837A838B8372
:102930009C83C501B4010E94A719CB0169817A81EA
:102940000E94A40A811108C080920C0190920D018E
:10295000A0920E01B0920F012091D1023091D202CB
:102960004091D3025091D402C301B2010E94CE1A09
:10297000A70196010E94BF186B017C010E94A71954
:102980004B0160910C0170910D0180910E019091AD
:102990000F010E94A719CB01B4010E94A40A811162
:1029A00008C0C0920801D0920901E0920A01F09299
:1029B0000B010E94550820910401309105014091BE
:1029C00006015091070129833A834B835C8384FF7E
:1029D0006CC08091080190910901A0910A01B09109
:1029E0000B0189879A87AB87BC87A3019201698114
:1029F0007A818B819C810E94CE1A9B01AC016091EF
:102A00000C0170910D0180910E0190910F010E94B7
:102A1000BE186B017C0169857A858B859C850E9437
:102A2000A7194B01C701B6010E94A719CB01B40138
:102A30000E94A40A811108C0C0920C01D0920D011D
:102A4000E0920E01F0920F012091D1023091D2025A
:102A50004091D3025091D402C301B2010E94CE1A18
:102A60009B01AC0169857A858B859C850E94BE1887
:102A70006B017C010E94A7194B0160910C017091C0
:102A80000D0180910E0190910F010E94A719CB01B9
:102A9000B4010E94A40A811108C0C0920801D0921A
:102AA0000901E0920A01F0920B010E94550885FF8E
:102AB000B3C0C090D102D090D202E090D302F09087
:102AC000D4026D817E818F8198850E9430192B01FF
:102AD0003C016D817E818F8198850E943B1B6987B7
:102AE0007A878B879C87A301920169817A818B8188
:102AF0009C810E94CE1A4B015C01A7019601698559
:102B00007A858B859C850E94CE1A9B01AC01C501FC
:102B1000B4010E94BF186093040170930501809373
:102B20000601909307016D817E818F819885905871
:102B30000E943B1B6D877E878F87988B9B01AC0122
:102B400069817A818B819C810E94CE1A4B015C0144
:102B5000A7019601C301B2010E94CE1A9B01AC01EC
:102B6000C501B4010E94BF186093D1027093D202D4
:102B70008093D3029093D4028090D5029090D60295
:102B8000A090D702B090D802C0900001D09001016F
:102B9000E0900201F0900301A5019401C301B2018C
:102BA0000E94CE1A69837A838B839C83A701960146
:102BB00069857A858B859C850E94CE1A9B01AC0124
:102BC00069817A818B819C810E94BF186093D502B4
:102BD0007093D6028093D7029093D802A5019401F6
:102BE0006D857E858F8598890E94CE1A4B015C0188
:102BF000A7019601C301B2010E94CE1A9B01AC014C
:102C0000C501B4010E94BF186093000170930101D7
:102C100080930201909303010E94550886FFB2C081
:102C20008090040190900501A0900601B0900701EA
:102C3000C090D102D090D202E090D302F090D402A2
:102C40006D817E818F8198850E9430192B013C0116
:102C50006D817E818F8198850E943B1B6D837E8371
:102C60008F839887A3019201C501B4010E94CE1AF7
:102C700069837A838B839C832D813E814F81588524
:102C8000C701B6010E94CE1A9B01AC0169817A810D
:102C90008B819C810E94BE18609304017093050192
:102CA00080930601909307012D813E814F815885C5
:102CB000C501B4010E94CE1A4B015C01A30192012F
:102CC000C701B6010E94CE1A9B01AC01C501B40137
:102CD0000E94BF186093D1027093D2028093D302F6
:102CE0009093D4028090D5029090D602A090D70203
:102CF000B090D802C0900001D0900101E090020194
:102D0000F0900301A5019401C301B2010E94CE1A03
:102D100069837A838B839C83A70196016D817E8171
:102D20008F8198850E94CE1A9B01AC0169817A81BE
:102D30008B819C810E94BE186093D5027093D6024D
:102D40008093D7029093D802A50194016D817E8172
:102D50008F8198850E94CE1A4B015C01A7019601D4
:102D6000C301B2010E94CE1A9B01AC01C501B4019E
:102D70000E94BF18609300017093010180930201CB
:102D8000909303010E94550883FF5CC0E1E6F1E0E7
:102D900090E080E020893189121613060CF476C188
:102DA000E2E1E89FD001E99FB00D1124AF59BE4F79
:102DB000BA83A98380910C0190910D01A0910E011D
:102DC000B0910F01E981FA8180839183A283B3835B
:102DD0008091080190910901A0910A01B0910B0125
:102DE00084839583A683B78320E030E040E05FE3EF
:102DF0006091040170910501809106019091070195
:102E00000E94CE1AA981BA8118966D937D938D93F5
:102E10009C931B9720E030E040E05FE36091D1029B
:102E20007091D2028091D3029091D4020E94CE1A66
:102E3000E981FA81648775878687978704E610E0C1
:102E4000118B008B20910C0130910D0140910E01EE
:102E500050910F01298B3A8B4B8B5C8B8091080131
:102E600090910901A0910A01B0910B01898F9A8F6D
:102E7000AB8FBC8F0091D1021091D2022091D3026E
:102E80003091D4020D831E832F8338872091040153
:102E900030910501409106015091070129833A8341
:102EA0004B835C8301E611E01E8B0D8BAD89BE89DF
:102EB00050960D911C915197101611060CF0F0C010
:102EC00018962D913D914D915C911B976D917D913F
:102ED0008D919C910E94BF186B017C01ED89FE8948
:102EE000C082D182E282F38224853585468557856A
:102EF00064817581868197810E94BF184B015C01B6
:102F0000AD89BE8914968D929D92AD92BC92179711
:102F10000150110951961C930E93509729893A89B3
:102F20004B895C89C701B6010E94BE186B017C0108
:102F3000298D3A8D4B8D5C8DC501B4010E94BE1860
:102F400069877A878B879C872D813E814F81588541
:102F5000C701B6010E94CE1A4B015C0129813A815A
:102F60004B815C8169857A858B859C850E94CE1A10
:102F70002B013C01AC019B01C501B4010E94BE18AC
:102F80009B01AC0160E070E080E892E40E9435199A
:102F90006D877E878F87988BA3019201C501B4014D
:102FA0000E94BF182D853E854F8558890E94CE1AF4
:102FB00020E030E040E852E40E94BF180E94A719C8
:102FC0004B0129813A814B815C81C701B6010E9486
:102FD000CE1A6B017C012D813E814F815885698518
:102FE0007A858B859C850E94CE1A9B01AC01C70116
:102FF000B6010E94BE182D853E854F8558890E94D6
:10300000CE1A9B01AC0160E070E080E092E40E9487
:10301000BE180E94A719AB01625071099401225099
:103020003109B2E08B0E911C4E5F5F4F28153905B8
:10303000B9F1CB0177FF02C090E080E0FA014134A2
:10304000510514F0E0E4F0E08E179F0734F52038C6
:103050003105D0F4E82FE695E695E69500E8E09F87
:10306000F0011124E20FF31FEA5BFC4FDC01A770B3
:10307000BB2701E010E002C0000F111FAA95E2F784
:10308000D801B489AB2BA48B0196D8CF0196729648
:103090008431910509F07ECED5CE2F5F3F4FC6CF4C
:1030A0000D891E890E5E1F4F1E8B0D8B201631065B
:1030B00009F0FCCE8AE593E00E946F0820E030E042
:1030C000232B09F4AAC90E940000A7C9F999FECFD1
:1030D00092BD81BDF89A992780B50895052E97FB7A
:1030E0001EF400940E94851857FD07D00E948D1889
:1030F00007FC03D04EF40C948518509540953095FC
:1031000021953F4F4F4F5F4F089590958095709553
:1031100061957F4F8F4F9F4F0895A1E21A2EAA1BF2
:10312000BB1BFD010DC0AA1FBB1FEE1FFF1FA21777
:10313000B307E407F50720F0A21BB30BE40BF50B74
:10314000661F771F881F991F1A9469F760957095FD
:10315000809590959B01AC01BD01CF010895A29F80
:10316000B001B39FC001A39F700D811D1124911D5B
:10317000B29F700D811D1124911D08955058BB27D9
:10318000AA270E94D6180C94801A0E94471A38F079
:103190000E944E1A20F039F49F3F19F426F40C9443
:1031A000441A0EF4E095E7FB0C943E1AE92F0E94B6
:1031B000A51A58F3BA17620773078407950720F01A
:1031C00079F4A6F50C94C71A0EF4E0950B2EBA2FDD
:1031D000A02D0B01B90190010C01CA01A00111241D
:1031E000FF27591B99F0593F50F4503E68F11A16C9
:1031F000F040A22F232F342F4427585FF3CF46955A
:1032000037952795A795F0405395C9F77EF41F167B
:10321000BA0B620B730B840BBAF09150A1F0FF0F45
:10322000BB1F661F771F881FC2F70EC0BA0F621F31
:10323000731F841F48F4879577956795B795F79521
:103240009E3F08F0B0CF9395880F08F09927EE0FB6
:103250009795879508950E941A1A08F481E00895B9
:103260000E94571AE3950C94911A0E9449190C94E4
:10327000801A0E944E1A58F00E94471A40F029F412
:103280005F3F29F00C943E1A51110C94C81A0C940B
:10329000441A0E94A51A68F39923B1F3552391F3B8
:1032A000951B550BBB27AA2762177307840738F0B5
:1032B0009F5F5F4F220F331F441FAA1FA9F335D012
:1032C0000E2E3AF0E0E832D091505040E695001CC6
:1032D000CAF72BD0FE2F29D0660F771F881FBB1F80
:1032E000261737074807AB07B0E809F0BB0B802D5E
:1032F000BF01FF2793585F4F3AF09E3F510578F08A
:103300000C943E1A0C94C81A5F3FE4F3983ED4F331
:10331000869577956795B795F7959F5FC9F7880F5D
:10332000911D9695879597F90895E1E0660F771FAF
:10333000881FBB1F621773078407BA0720F0621B40
:10334000730B840BBA0BEE1F88F7E09508950E946B
:10335000AE196894B1110C94C81A08950E94AD1A60
:1033600088F09F5798F0B92F9927B751B0F0E1F046
:10337000660F771F881F991F1AF0BA95C9F714C0F6
:10338000B13091F00E94C71AB1E008950C94C71AA9
:10339000672F782F8827B85F39F0B93FCCF386952F
:1033A00077956795B395D9F73EF49095809570958C
:1033B00061957F4F8F4F9F4F0895E89409C097FB09
:1033C0003EF490958095709561957F4F8F4F9F4FFC
:1033D0009923A9F0F92F96E9BB279395F695879540
:1033E00077956795B795F111F8CFFAF4BB0F11F403
:1033F00060FF1BC06F5F7F4F8F4F9F4F16C08823AA
:1034000011F096E911C0772321F09EE8872F762FDF
:1034100005C0662371F096E8862F70E060E02AF020
:103420009A95660F771F881FDAF7880F969587950C
:1034300097F90895990F0008550FAA0BE0E8FEEFE1
:1034400016161706E807F907C0F012161306E40768
:10345000F50798F0621B730B840B950B39F40A2661
:1034600061F0232B242B252B21F408950A2609F43F
:10347000A140A6958FEF811D811D089597F99F6743
:1034800080E870E060E008959FEF80EC08950024EC
:103490000A941616170618060906089500240A94B9
:1034A000121613061406050608950C94441A0E9479
:1034B000AD1AD8F3E894E0E0BB279F57F0F02AED6F
:1034C0003FE049EC06C0EE0FBB0F661F771F881F59
:1034D00028F0B23A62077307840728F0B25A620BE9
:1034E000730B840BE3959A9572F7803830F49A95B4
:1034F000BB0F661F771F881FD2F790480C948B1B59
:10350000092E0394000C11F4882352F0BB0F40F4F1
:10351000BF2B11F460FF04C06F5F7F4F8F4F9F4F31
:103520000895EF93E0FF07C0A2EA2AED3FE049ECDF
:103530005FEB0E94D6180E94801A0F90039401FC42
:103540009058ECEAF0E00C949E1B57FD9058440F05
:10355000551F59F05F3F71F04795880F97FB991FF2
:1035600061F09F3F79F087950895121613061406AF
:10357000551FF2CF4695F1DF08C01616170618063C
:10358000991FF1CF86957105610508940895E89417
:10359000BB2766277727CB0197F908950E94E11A88
:1035A0000C94801A0E94471A38F00E944E1A20F09C
:1035B000952311F00C943E1A0C94441A11240C9487
:1035C000C81A0E94A51A70F3959FC1F3950F50E099
:1035D000551F629FF001729FBB27F00DB11D639FC5
:1035E000AA27F00DB11DAA1F649F6627B00DA11D6B
:1035F000661F829F2227B00DA11D621F739FB00D11
:10360000A11D621F839FA00D611D221F749F332780
:10361000A00D611D231F849F600D211D822F762F19
:103620006A2F11249F5750409AF0F1F088234AF0F6
:10363000EE0FFF1FBB1F661F771F881F9150504062
:10364000A9F79E3F510580F00C943E1A0C94C81ABD
:103650005F3FE4F3983ED4F3869577956795B795E9
:10366000F795E7959F5FC1F7FE2B880F911D969503
:10367000879597F908959F930E94571A0F9007FC1A
:10368000EE5F0C94911A19F416F40C94441A0C94ED
:10369000891B0E94AD1AB8F39923C9F3B6F39F575B
:1036A000550B87FF0E94971B0024A0E640EA90017B
:1036B00080585695979528F4805C660F771F881F71
:1036C00020F026173707480730F4621B730B840B72
:1036D000202931294A2BA6951794079420253125B6
:1036E0004A2758F7660F771F881F20F026173707DD
:1036F000480730F4620B730B840B200D311D411D04
:10370000A09581F7B901842F9158880F96958795D8
:1037100008959F3F31F0915020F4879577956795F4
:10372000B795880F911D9695879597F908959150B3
:103730005040660F771F881FD2F708959F938F938D
:103740007F936F93FF93EF939B01AC010E94CE1A7E
:10375000EF91FF910E94B21B2F913F914F915F918A
:103760000C94CE1ADF93CF931F930F93FF92EF9297
:10377000DF927B018C01689406C0DA2EEF010E9473
:10378000E11AFE01E894A591259135914591559155
:10379000A6F3EF010E94D618FE019701A801DA9462
:1037A00069F7DF90EF90FF900F911F91CF91DF911C
:1037B000089597FB072E16F4009407D077FD09D0E3
:1037C0000E94F31B07FC05D03EF4909581959F4F16
:1037D0000895709561957F4F0895EE0FFF1F059036
:1037E000F491E02D0994AA1BBB1B51E107C0AA1F4D
:1037F000BB1FA617B70710F0A61BB70B881F991F92
:103800005A95A9F780959095BC01CD01089581E066
:0C38100090E0F8940C940C1CF894FFCF8E
:10381C00C3F5283F0000803F00607A4400607A4482
:10382C00FFFFFFFF00E100000000000000C18081ED
:10383C0000000000000000B604D007D704CC041D23
:10384C0005DB04F904000000008409FC059F0A9EB6
:02385C000A0060
:00000001FF
